{
  "contractName": "SKM_SC",
  "abi": [
    {
      "inputs": [],
      "stateMutability": "nonpayable",
      "type": "constructor"
    },
    {
      "inputs": [
        {
          "internalType": "address",
          "name": "deviceID",
          "type": "address"
        }
      ],
      "name": "addDevice",
      "outputs": [],
      "stateMutability": "nonpayable",
      "type": "function"
    },
    {
      "inputs": [
        {
          "internalType": "address",
          "name": "deviceID",
          "type": "address"
        }
      ],
      "name": "removeDevice",
      "outputs": [],
      "stateMutability": "nonpayable",
      "type": "function"
    },
    {
      "inputs": [
        {
          "internalType": "address",
          "name": "deviceID",
          "type": "address"
        },
        {
          "internalType": "uint256",
          "name": "IPFSref",
          "type": "uint256"
        }
      ],
      "name": "storeRef",
      "outputs": [],
      "stateMutability": "nonpayable",
      "type": "function"
    },
    {
      "inputs": [
        {
          "internalType": "uint256",
          "name": "IPFSref",
          "type": "uint256"
        }
      ],
      "name": "storeRef",
      "outputs": [],
      "stateMutability": "nonpayable",
      "type": "function"
    },
    {
      "inputs": [],
      "name": "getRef",
      "outputs": [
        {
          "internalType": "uint256",
          "name": "",
          "type": "uint256"
        }
      ],
      "stateMutability": "view",
      "type": "function"
    },
    {
      "inputs": [
        {
          "internalType": "address",
          "name": "deviceID",
          "type": "address"
        }
      ],
      "name": "getRef",
      "outputs": [
        {
          "internalType": "uint256",
          "name": "",
          "type": "uint256"
        }
      ],
      "stateMutability": "view",
      "type": "function"
    },
    {
      "inputs": [
        {
          "internalType": "uint256",
          "name": "newTemp",
          "type": "uint256"
        }
      ],
      "name": "modTemp",
      "outputs": [],
      "stateMutability": "nonpayable",
      "type": "function"
    },
    {
      "inputs": [],
      "name": "getTemp",
      "outputs": [
        {
          "internalType": "uint256",
          "name": "",
          "type": "uint256"
        }
      ],
      "stateMutability": "view",
      "type": "function"
    },
    {
      "inputs": [],
      "name": "getSmartphoneID",
      "outputs": [
        {
          "internalType": "address",
          "name": "",
          "type": "address"
        }
      ],
      "stateMutability": "view",
      "type": "function"
    }
  ],
  "bytecode": "0x608060405234801561001057600080fd5b50336000806101000a81548173ffffffffffffffffffffffffffffffffffffffff021916908373ffffffffffffffffffffffffffffffffffffffff160217905550610d1c806100606000396000f3fe608060405234801561001057600080fd5b50600436106100935760003560e01c80639525256011610066578063952525601461011e578063ad70dd5b1461013c578063b111cb8414610158578063bf28921614610174578063c1c6b6b61461019057610093565b80631d6d32ba146100985780631f3a2ae2146100b65780631f7b6324146100d25780635a7db533146100ee575b600080fd5b6100a06101ae565b6040516100ad9190610c50565b60405180910390f35b6100d060048036038101906100cb9190610a46565b610287565b005b6100ec60048036038101906100e79190610a1d565b6103ef565b005b61010860048036038101906101039190610a1d565b61056a565b6040516101159190610c50565b60405180910390f35b6101266106d4565b6040516101339190610c50565b60405180910390f35b61015660048036038101906101519190610a82565b6106de565b005b610172600480360381019061016d9190610a1d565b6107b7565b005b61018e60048036038101906101899190610a82565b610932565b005b6101986109ca565b6040516101a59190610bd5565b60405180910390f35b6000600160003373ffffffffffffffffffffffffffffffffffffffff1673ffffffffffffffffffffffffffffffffffffffff16815260200190815260200160002060000160009054906101000a900460ff1661023f576040517f08c379a000000000000000000000000000000000000000000000000000000000815260040161023690610c30565b60405180910390fd5b600160003373ffffffffffffffffffffffffffffffffffffffff1673ffffffffffffffffffffffffffffffffffffffff16815260200190815260200160002060010154905090565b60008054906101000a900473ffffffffffffffffffffffffffffffffffffffff1673ffffffffffffffffffffffffffffffffffffffff163373ffffffffffffffffffffffffffffffffffffffff1614610315576040517f08c379a000000000000000000000000000000000000000000000000000000000815260040161030c90610bf0565b60405180910390fd5b600160008373ffffffffffffffffffffffffffffffffffffffff1673ffffffffffffffffffffffffffffffffffffffff16815260200190815260200160002060000160009054906101000a900460ff166103a4576040517f08c379a000000000000000000000000000000000000000000000000000000000815260040161039b90610c30565b60405180910390fd5b80600160008473ffffffffffffffffffffffffffffffffffffffff1673ffffffffffffffffffffffffffffffffffffffff168152602001908152602001600020600101819055505050565b60008054906101000a900473ffffffffffffffffffffffffffffffffffffffff1673ffffffffffffffffffffffffffffffffffffffff163373ffffffffffffffffffffffffffffffffffffffff161461047d576040517f08c379a000000000000000000000000000000000000000000000000000000000815260040161047490610bf0565b60405180910390fd5b600160008273ffffffffffffffffffffffffffffffffffffffff1673ffffffffffffffffffffffffffffffffffffffff16815260200190815260200160002060000160009054906101000a900460ff1661050c576040517f08c379a000000000000000000000000000000000000000000000000000000000815260040161050390610c30565b60405180910390fd5b6000600160008373ffffffffffffffffffffffffffffffffffffffff1673ffffffffffffffffffffffffffffffffffffffff16815260200190815260200160002060000160006101000a81548160ff02191690831515021790555050565b60008060009054906101000a900473ffffffffffffffffffffffffffffffffffffffff1673ffffffffffffffffffffffffffffffffffffffff163373ffffffffffffffffffffffffffffffffffffffff16146105fb576040517f08c379a00000000000000000000000000000000000000000000000000000000081526004016105f290610bf0565b60405180910390fd5b600160008373ffffffffffffffffffffffffffffffffffffffff1673ffffffffffffffffffffffffffffffffffffffff16815260200190815260200160002060000160009054906101000a900460ff1661068a576040517f08c379a000000000000000000000000000000000000000000000000000000000815260040161068190610c30565b60405180910390fd5b600160008373ffffffffffffffffffffffffffffffffffffffff1673ffffffffffffffffffffffffffffffffffffffff168152602001908152602001600020600101549050919050565b6000600254905090565b600160003373ffffffffffffffffffffffffffffffffffffffff1673ffffffffffffffffffffffffffffffffffffffff16815260200190815260200160002060000160009054906101000a900460ff1661076d576040517f08c379a000000000000000000000000000000000000000000000000000000000815260040161076490610c30565b60405180910390fd5b80600160003373ffffffffffffffffffffffffffffffffffffffff1673ffffffffffffffffffffffffffffffffffffffff1681526020019081526020016000206001018190555050565b60008054906101000a900473ffffffffffffffffffffffffffffffffffffffff1673ffffffffffffffffffffffffffffffffffffffff163373ffffffffffffffffffffffffffffffffffffffff1614610845576040517f08c379a000000000000000000000000000000000000000000000000000000000815260040161083c90610bf0565b60405180910390fd5b600160008273ffffffffffffffffffffffffffffffffffffffff1673ffffffffffffffffffffffffffffffffffffffff16815260200190815260200160002060000160009054906101000a900460ff16156108d5576040517f08c379a00000000000000000000000000000000000000000000000000000000081526004016108cc90610c10565b60405180910390fd5b60018060008373ffffffffffffffffffffffffffffffffffffffff1673ffffffffffffffffffffffffffffffffffffffff16815260200190815260200160002060000160006101000a81548160ff02191690831515021790555050565b60008054906101000a900473ffffffffffffffffffffffffffffffffffffffff1673ffffffffffffffffffffffffffffffffffffffff163373ffffffffffffffffffffffffffffffffffffffff16146109c0576040517f08c379a00000000000000000000000000000000000000000000000000000000081526004016109b790610bf0565b60405180910390fd5b8060028190555050565b60008060009054906101000a900473ffffffffffffffffffffffffffffffffffffffff16905090565b600081359050610a0281610cb8565b92915050565b600081359050610a1781610ccf565b92915050565b600060208284031215610a2f57600080fd5b6000610a3d848285016109f3565b91505092915050565b60008060408385031215610a5957600080fd5b6000610a67858286016109f3565b9250506020610a7885828601610a08565b9150509250929050565b600060208284031215610a9457600080fd5b6000610aa284828501610a08565b91505092915050565b610ab481610c7c565b82525050565b6000610ac7603183610c6b565b91507f4f6e6c792074686520736d61727470686f6e6520697320616c6c6f776564207460008301527f6f20646f207468697320616374696f6e2e0000000000000000000000000000006020830152604082019050919050565b6000610b2d602983610c6b565b91507f5468697320706c75672d696e2068617320616c7265616479206265656e20636f60008301527f6e666967757265642e00000000000000000000000000000000000000000000006020830152604082019050919050565b6000610b93601f83610c6b565b91507f5468697320706c75672d696e206973206e6f7420636f6e666967757265642e006000830152602082019050919050565b610bcf81610cae565b82525050565b6000602082019050610bea6000830184610aab565b92915050565b60006020820190508181036000830152610c0981610aba565b9050919050565b60006020820190508181036000830152610c2981610b20565b9050919050565b60006020820190508181036000830152610c4981610b86565b9050919050565b6000602082019050610c656000830184610bc6565b92915050565b600082825260208201905092915050565b6000610c8782610c8e565b9050919050565b600073ffffffffffffffffffffffffffffffffffffffff82169050919050565b6000819050919050565b610cc181610c7c565b8114610ccc57600080fd5b50565b610cd881610cae565b8114610ce357600080fd5b5056fea26469706673582212209402faae98e1f5faa8448c9cc4ab8e3dc33a3e54b6ee69bc9ea201d3db597ab964736f6c63430008000033",
  "immutableReferences": {},
  "source": "// SPDX-License-Identifier: GPL-3.0-or-later\r\n\r\npragma solidity >=0.4.16 <0.9.0;\r\n\r\n/** \r\n * @title Secure Key Management Smart Contract\r\n * @dev The Secure Key Management SC allows the user access to the cryptographic keys stored in the IPFS, but also to exchange some information between the plug-in installed in a web browser and the smartphone during the set-up of the system.\r\n */\r\n\r\ncontract SKM_SC {\r\n\r\n    //Identities of the actors\r\n    address private smartphoneID;\r\n\r\n    //address[] private whiteList;\r\n    //mapping( address => uint256 ) private refsList;\r\n\r\n    //Struct to store all plug-ins info.   \r\n    struct DeviceInfo{\r\n        bool exists;\r\n        uint256 IPFSref;\r\n    }\r\n    mapping( address => DeviceInfo ) private whiteList;\r\n\r\n    \r\n    uint256 private temp;\r\n\r\n\r\n\r\n    /** Constructor\r\n     * @dev Create a new Secure Key Management Smart Contract.\r\n     */\r\n    constructor( ) {\r\n        \r\n        smartphoneID = msg.sender;\r\n    }\r\n\r\n    \r\n    /** \r\n     * @dev Adds a new public key to the whiteList list\r\n     * @param deviceID public key of the new device\r\n     */    \r\n    function addDevice( address deviceID ) external onlySmartphone {\r\n\r\n        require( !whiteList[ deviceID ].exists, \"This plug-in has already been configured.\" );\r\n\r\n        whiteList[ deviceID ].exists = true;\r\n    }\r\n\r\n\r\n    /** \r\n     * @dev Removes an existing public key from the whiteList list\r\n     * @param deviceID public key of an existing device\r\n     */  \r\n    function removeDevice( address deviceID ) external onlySmartphone {\r\n\r\n        require( whiteList[ deviceID ].exists, \"This plug-in is not configured.\" );\r\n\r\n        whiteList[ deviceID ].exists = false;\r\n    }\r\n\r\n\r\n    /** \r\n     * @dev Modifies the reference to the IPFS in the mapping position of the device that has used the method\r\n     * @param IPFSref new IPFS reference\r\n     */  \r\n    function storeRef( uint256 IPFSref ) external {\r\n\r\n        require( whiteList[ msg.sender ].exists, \"This plug-in is not configured.\" );\r\n\r\n        whiteList[ msg.sender ].IPFSref = IPFSref;\r\n    }\r\n\r\n\r\n    /**\r\n     * @dev Returns ipfs reference \r\n     */\r\n    function getRef(  ) external view returns( uint256 ) {\r\n        \r\n        require( whiteList[ msg.sender ].exists, \"This plug-in is not configured.\" );\r\n\r\n        return whiteList[ msg.sender ].IPFSref;\r\n    }\r\n\r\n\r\n    /** \r\n     * @dev Modifies the reference to the IPFS in the mapping position of the device that has used the method\r\n     * @param IPFSref new IPFS reference\r\n     */  \r\n    function storeRef( address deviceID, uint256 IPFSref ) external onlySmartphone {\r\n\r\n        require( whiteList[ deviceID ].exists, \"This plug-in is not configured.\" );\r\n\r\n        whiteList[ deviceID ].IPFSref = IPFSref;\r\n    }\r\n\r\n    /**\r\n     * @dev Returns ipfs  reference \r\n     */\r\n    function getRef( address deviceID ) external onlySmartphone view returns( uint256 ) {\r\n        \r\n        require( whiteList[ deviceID ].exists, \"This plug-in is not configured.\" );\r\n\r\n        return whiteList[ deviceID ].IPFSref;\r\n    }\r\n    \r\n\r\n\r\n    /** \r\n     * @dev Modifies the data contained in the temp filed.\r\n     * @param newTemp new temporal value\r\n     */  \r\n    function modTemp( uint256 newTemp ) external onlySmartphone{\r\n\r\n        temp = newTemp;\r\n    }\r\n\r\n\r\n    /**\r\n     * @dev Returns temporal value \r\n     */\r\n    function getTemp() external view returns( uint256 ) {\r\n        return temp;\r\n    }\r\n\r\n    function getSmartphoneID() external view returns( address ) {\r\n        return smartphoneID;\r\n    }\r\n\r\n\r\n    modifier onlySmartphone(){\r\n        require( msg.sender == smartphoneID, 'Only the smartphone is allowed to do this action.' );\r\n        _;\r\n    }\r\n\r\n}",
  "sourcePath": "C:\\TFGwallet\\app\\src\\main\\java\\com\\example\\tfgwallet\\SKM_SC\\PPMWallet\\contracts\\SKM_SC.sol",
  "compiler": {
    "name": "solc",
    "version": "0.8.0+commit.c7dfd78e.Emscripten.clang"
  },
  "schemaVersion": "3.4.16",
  "updatedAt": "2024-04-03T08:33:38.042Z",
  "devdoc": {
    "details": "The Secure Key Management SC allows the user access to the cryptographic keys stored in the IPFS, but also to exchange some information between the plug-in installed in a web browser and the smartphone during the set-up of the system.",
    "kind": "dev",
    "methods": {
      "addDevice(address)": {
        "details": "Adds a new public key to the whiteList list",
        "params": {
          "deviceID": "public key of the new device"
        }
      },
      "constructor": {
        "details": "Create a new Secure Key Management Smart Contract."
      },
      "getRef()": {
        "details": "Returns ipfs reference "
      },
      "getRef(address)": {
        "details": "Returns ipfs  reference "
      },
      "getTemp()": {
        "details": "Returns temporal value "
      },
      "modTemp(uint256)": {
        "details": "Modifies the data contained in the temp filed.",
        "params": {
          "newTemp": "new temporal value"
        }
      },
      "removeDevice(address)": {
        "details": "Removes an existing public key from the whiteList list",
        "params": {
          "deviceID": "public key of an existing device"
        }
      },
      "storeRef(address,uint256)": {
        "details": "Modifies the reference to the IPFS in the mapping position of the device that has used the method",
        "params": {
          "IPFSref": "new IPFS reference"
        }
      },
      "storeRef(uint256)": {
        "details": "Modifies the reference to the IPFS in the mapping position of the device that has used the method",
        "params": {
          "IPFSref": "new IPFS reference"
        }
      }
    },
    "title": "Secure Key Management Smart Contract",
    "version": 1
  },
  "userdoc": {
    "kind": "user",
    "methods": {
      "constructor": {
        "notice": "Constructor"
      }
    },
    "version": 1
  }
}